{
  "_format": "hh-sol-artifact-1",
  "contractName": "Redeemable",
  "sourceName": "contracts/Redeemable.sol",
  "abi": [
    {
      "inputs": [
        {
          "internalType": "address payable",
          "name": "minter",
          "type": "address"
        }
      ],
      "stateMutability": "nonpayable",
      "type": "constructor"
    },
    {
      "anonymous": false,
      "inputs": [
        {
          "indexed": true,
          "internalType": "address",
          "name": "owner",
          "type": "address"
        },
        {
          "indexed": true,
          "internalType": "address",
          "name": "approved",
          "type": "address"
        },
        {
          "indexed": true,
          "internalType": "uint256",
          "name": "tokenId",
          "type": "uint256"
        }
      ],
      "name": "Approval",
      "type": "event"
    },
    {
      "anonymous": false,
      "inputs": [
        {
          "indexed": true,
          "internalType": "address",
          "name": "owner",
          "type": "address"
        },
        {
          "indexed": true,
          "internalType": "address",
          "name": "operator",
          "type": "address"
        },
        {
          "indexed": false,
          "internalType": "bool",
          "name": "approved",
          "type": "bool"
        }
      ],
      "name": "ApprovalForAll",
      "type": "event"
    },
    {
      "anonymous": false,
      "inputs": [
        {
          "indexed": true,
          "internalType": "bytes32",
          "name": "role",
          "type": "bytes32"
        },
        {
          "indexed": true,
          "internalType": "bytes32",
          "name": "previousAdminRole",
          "type": "bytes32"
        },
        {
          "indexed": true,
          "internalType": "bytes32",
          "name": "newAdminRole",
          "type": "bytes32"
        }
      ],
      "name": "RoleAdminChanged",
      "type": "event"
    },
    {
      "anonymous": false,
      "inputs": [
        {
          "indexed": true,
          "internalType": "bytes32",
          "name": "role",
          "type": "bytes32"
        },
        {
          "indexed": true,
          "internalType": "address",
          "name": "account",
          "type": "address"
        },
        {
          "indexed": true,
          "internalType": "address",
          "name": "sender",
          "type": "address"
        }
      ],
      "name": "RoleGranted",
      "type": "event"
    },
    {
      "anonymous": false,
      "inputs": [
        {
          "indexed": true,
          "internalType": "bytes32",
          "name": "role",
          "type": "bytes32"
        },
        {
          "indexed": true,
          "internalType": "address",
          "name": "account",
          "type": "address"
        },
        {
          "indexed": true,
          "internalType": "address",
          "name": "sender",
          "type": "address"
        }
      ],
      "name": "RoleRevoked",
      "type": "event"
    },
    {
      "anonymous": false,
      "inputs": [
        {
          "indexed": true,
          "internalType": "address",
          "name": "from",
          "type": "address"
        },
        {
          "indexed": true,
          "internalType": "address",
          "name": "to",
          "type": "address"
        },
        {
          "indexed": true,
          "internalType": "uint256",
          "name": "tokenId",
          "type": "uint256"
        }
      ],
      "name": "Transfer",
      "type": "event"
    },
    {
      "inputs": [],
      "name": "DEFAULT_ADMIN_ROLE",
      "outputs": [
        {
          "internalType": "bytes32",
          "name": "",
          "type": "bytes32"
        }
      ],
      "stateMutability": "view",
      "type": "function"
    },
    {
      "inputs": [],
      "name": "MINTER_ROLE",
      "outputs": [
        {
          "internalType": "bytes32",
          "name": "",
          "type": "bytes32"
        }
      ],
      "stateMutability": "view",
      "type": "function"
    },
    {
      "inputs": [
        {
          "internalType": "address",
          "name": "to",
          "type": "address"
        },
        {
          "internalType": "uint256",
          "name": "tokenId",
          "type": "uint256"
        }
      ],
      "name": "approve",
      "outputs": [],
      "stateMutability": "nonpayable",
      "type": "function"
    },
    {
      "inputs": [],
      "name": "availableToWithdraw",
      "outputs": [
        {
          "internalType": "uint256",
          "name": "",
          "type": "uint256"
        }
      ],
      "stateMutability": "view",
      "type": "function"
    },
    {
      "inputs": [
        {
          "internalType": "address",
          "name": "owner",
          "type": "address"
        }
      ],
      "name": "balanceOf",
      "outputs": [
        {
          "internalType": "uint256",
          "name": "",
          "type": "uint256"
        }
      ],
      "stateMutability": "view",
      "type": "function"
    },
    {
      "inputs": [
        {
          "internalType": "uint256",
          "name": "tokenId",
          "type": "uint256"
        }
      ],
      "name": "getApproved",
      "outputs": [
        {
          "internalType": "address",
          "name": "",
          "type": "address"
        }
      ],
      "stateMutability": "view",
      "type": "function"
    },
    {
      "inputs": [],
      "name": "getChainID",
      "outputs": [
        {
          "internalType": "uint256",
          "name": "",
          "type": "uint256"
        }
      ],
      "stateMutability": "view",
      "type": "function"
    },
    {
      "inputs": [
        {
          "internalType": "bytes32",
          "name": "role",
          "type": "bytes32"
        }
      ],
      "name": "getRoleAdmin",
      "outputs": [
        {
          "internalType": "bytes32",
          "name": "",
          "type": "bytes32"
        }
      ],
      "stateMutability": "view",
      "type": "function"
    },
    {
      "inputs": [
        {
          "internalType": "bytes32",
          "name": "role",
          "type": "bytes32"
        },
        {
          "internalType": "address",
          "name": "account",
          "type": "address"
        }
      ],
      "name": "grantRole",
      "outputs": [],
      "stateMutability": "nonpayable",
      "type": "function"
    },
    {
      "inputs": [
        {
          "internalType": "bytes32",
          "name": "role",
          "type": "bytes32"
        },
        {
          "internalType": "address",
          "name": "account",
          "type": "address"
        }
      ],
      "name": "hasRole",
      "outputs": [
        {
          "internalType": "bool",
          "name": "",
          "type": "bool"
        }
      ],
      "stateMutability": "view",
      "type": "function"
    },
    {
      "inputs": [
        {
          "internalType": "address",
          "name": "owner",
          "type": "address"
        },
        {
          "internalType": "address",
          "name": "operator",
          "type": "address"
        }
      ],
      "name": "isApprovedForAll",
      "outputs": [
        {
          "internalType": "bool",
          "name": "",
          "type": "bool"
        }
      ],
      "stateMutability": "view",
      "type": "function"
    },
    {
      "inputs": [],
      "name": "name",
      "outputs": [
        {
          "internalType": "string",
          "name": "",
          "type": "string"
        }
      ],
      "stateMutability": "view",
      "type": "function"
    },
    {
      "inputs": [
        {
          "internalType": "uint256",
          "name": "tokenId",
          "type": "uint256"
        }
      ],
      "name": "ownerOf",
      "outputs": [
        {
          "internalType": "address",
          "name": "",
          "type": "address"
        }
      ],
      "stateMutability": "view",
      "type": "function"
    },
    {
      "inputs": [
        {
          "internalType": "address",
          "name": "redeemer",
          "type": "address"
        },
        {
          "components": [
            {
              "internalType": "uint256",
              "name": "tokenId",
              "type": "uint256"
            },
            {
              "internalType": "uint256",
              "name": "minPrice",
              "type": "uint256"
            },
            {
              "internalType": "string",
              "name": "uri",
              "type": "string"
            },
            {
              "internalType": "bytes",
              "name": "signature",
              "type": "bytes"
            }
          ],
          "internalType": "struct Redeemable.NFTVoucher",
          "name": "voucher",
          "type": "tuple"
        }
      ],
      "name": "redeem",
      "outputs": [
        {
          "internalType": "uint256",
          "name": "",
          "type": "uint256"
        }
      ],
      "stateMutability": "payable",
      "type": "function"
    },
    {
      "inputs": [
        {
          "internalType": "bytes32",
          "name": "role",
          "type": "bytes32"
        },
        {
          "internalType": "address",
          "name": "account",
          "type": "address"
        }
      ],
      "name": "renounceRole",
      "outputs": [],
      "stateMutability": "nonpayable",
      "type": "function"
    },
    {
      "inputs": [
        {
          "internalType": "bytes32",
          "name": "role",
          "type": "bytes32"
        },
        {
          "internalType": "address",
          "name": "account",
          "type": "address"
        }
      ],
      "name": "revokeRole",
      "outputs": [],
      "stateMutability": "nonpayable",
      "type": "function"
    },
    {
      "inputs": [
        {
          "internalType": "address",
          "name": "from",
          "type": "address"
        },
        {
          "internalType": "address",
          "name": "to",
          "type": "address"
        },
        {
          "internalType": "uint256",
          "name": "tokenId",
          "type": "uint256"
        }
      ],
      "name": "safeTransferFrom",
      "outputs": [],
      "stateMutability": "nonpayable",
      "type": "function"
    },
    {
      "inputs": [
        {
          "internalType": "address",
          "name": "from",
          "type": "address"
        },
        {
          "internalType": "address",
          "name": "to",
          "type": "address"
        },
        {
          "internalType": "uint256",
          "name": "tokenId",
          "type": "uint256"
        },
        {
          "internalType": "bytes",
          "name": "_data",
          "type": "bytes"
        }
      ],
      "name": "safeTransferFrom",
      "outputs": [],
      "stateMutability": "nonpayable",
      "type": "function"
    },
    {
      "inputs": [
        {
          "internalType": "address",
          "name": "operator",
          "type": "address"
        },
        {
          "internalType": "bool",
          "name": "approved",
          "type": "bool"
        }
      ],
      "name": "setApprovalForAll",
      "outputs": [],
      "stateMutability": "nonpayable",
      "type": "function"
    },
    {
      "inputs": [
        {
          "internalType": "bytes4",
          "name": "interfaceId",
          "type": "bytes4"
        }
      ],
      "name": "supportsInterface",
      "outputs": [
        {
          "internalType": "bool",
          "name": "",
          "type": "bool"
        }
      ],
      "stateMutability": "view",
      "type": "function"
    },
    {
      "inputs": [],
      "name": "symbol",
      "outputs": [
        {
          "internalType": "string",
          "name": "",
          "type": "string"
        }
      ],
      "stateMutability": "view",
      "type": "function"
    },
    {
      "inputs": [
        {
          "internalType": "uint256",
          "name": "tokenId",
          "type": "uint256"
        }
      ],
      "name": "tokenURI",
      "outputs": [
        {
          "internalType": "string",
          "name": "",
          "type": "string"
        }
      ],
      "stateMutability": "view",
      "type": "function"
    },
    {
      "inputs": [
        {
          "internalType": "address",
          "name": "from",
          "type": "address"
        },
        {
          "internalType": "address",
          "name": "to",
          "type": "address"
        },
        {
          "internalType": "uint256",
          "name": "tokenId",
          "type": "uint256"
        }
      ],
      "name": "transferFrom",
      "outputs": [],
      "stateMutability": "nonpayable",
      "type": "function"
    },
    {
      "inputs": [],
      "name": "withdraw",
      "outputs": [],
      "stateMutability": "nonpayable",
      "type": "function"
    }
  ],
  "bytecode": "0x6101406040523480156200001257600080fd5b5060405162002a9738038062002a97833981016040819052620000359162000308565b6040518060400160405280600f81526020016e2630bd3ca7232a16ab37bab1b432b960891b815250604051806040016040528060018152602001603160f81b8152506040518060400160405280600781526020016613185e9e53919560ca1b815250604051806040016040528060038152602001622620ad60e91b8152508160009080519060200190620000cb92919062000262565b508051620000e190600190602084019062000262565b5050825160208085019190912083518483012060e08290526101008190524660a0818152604080517f8b73c3c69bb8fe3d512ecc4cf759cc79239f7b179b0ffacaa9a75d522b39400f81880181905281830187905260608201869052608082019490945230818401528151808203909301835260c0019052805194019390932091935091906080523060601b60c0526101205250620001a792507f9f2df0fed2c77648de5860a4cc508cd0818c85b8b8a1ab4ceeef8d981c8956a69150839050620001ae565b5062000375565b620001ba8282620001be565b5050565b60008281526007602090815260408083206001600160a01b038516845290915290205460ff16620001ba5760008281526007602090815260408083206001600160a01b03851684529091529020805460ff191660011790556200021e3390565b6001600160a01b0316816001600160a01b0316837f2f8788117e7eff1d82e926ec794901d17c78024a50270940304540a733656f0d60405160405180910390a45050565b828054620002709062000338565b90600052602060002090601f016020900481019282620002945760008555620002df565b82601f10620002af57805160ff1916838001178555620002df565b82800160010185558215620002df579182015b82811115620002df578251825591602001919060010190620002c2565b50620002ed929150620002f1565b5090565b5b80821115620002ed5760008155600101620002f2565b6000602082840312156200031a578081fd5b81516001600160a01b038116811462000331578182fd5b9392505050565b600181811c908216806200034d57607f821691505b602082108114156200036f57634e487b7160e01b600052602260045260246000fd5b50919050565b60805160a05160c05160601c60e05161010051610120516126cf620003c86000396000611e1401526000611e6301526000611e3e01526000611d9701526000611dc101526000611deb01526126cf6000f3fe60806040526004361061014b5760003560e01c80636352211e116100b6578063b88d4fde1161006f578063b88d4fde146103a4578063c87b56dd146103c4578063d5391393146103e4578063d547741f14610418578063e322ad2b14610438578063e985e9c51461045a57600080fd5b80636352211e146102fa57806370a082311461031a57806391d148541461033a57806395d89b411461035a578063a217fddf1461036f578063a22cb4651461038457600080fd5b8063248a9ca311610108578063248a9ca3146102425780632f2ff15d1461027257806336568abe146102925780633ccfd60b146102b257806342842e0e146102c7578063564b81ef146102e757600080fd5b806301ffc9a71461015057806306fdde0314610185578063081812fc146101a757806308708a78146101df578063095ea7b31461020057806323b872dd14610222575b600080fd5b34801561015c57600080fd5b5061017061016b3660046122cc565b6104a3565b60405190151581526020015b60405180910390f35b34801561019157600080fd5b5061019a6104c3565b60405161017c9190612421565b3480156101b357600080fd5b506101c76101c2366004612292565b610555565b6040516001600160a01b03909116815260200161017c565b6101f26101ed366004612222565b6105e2565b60405190815260200161017c565b34801561020c57600080fd5b5061022061021b366004612269565b61075d565b005b34801561022e57600080fd5b5061022061023d3660046120d8565b610873565b34801561024e57600080fd5b506101f261025d366004612292565b60009081526007602052604090206001015490565b34801561027e57600080fd5b5061022061028d3660046122aa565b6108a4565b34801561029e57600080fd5b506102206102ad3660046122aa565b6108ca565b3480156102be57600080fd5b50610220610948565b3480156102d357600080fd5b506102206102e23660046120d8565b610a0d565b3480156102f357600080fd5b50466101f2565b34801561030657600080fd5b506101c7610315366004612292565b610a28565b34801561032657600080fd5b506101f261033536600461208c565b610a9f565b34801561034657600080fd5b506101706103553660046122aa565b610b26565b34801561036657600080fd5b5061019a610b51565b34801561037b57600080fd5b506101f2600081565b34801561039057600080fd5b5061022061039f3660046121e8565b610b60565b3480156103b057600080fd5b506102206103bf366004612113565b610b6b565b3480156103d057600080fd5b5061019a6103df366004612292565b610ba3565b3480156103f057600080fd5b506101f27f9f2df0fed2c77648de5860a4cc508cd0818c85b8b8a1ab4ceeef8d981c8956a681565b34801561042457600080fd5b506102206104333660046122aa565b610d1a565b34801561044457600080fd5b50336000908152600860205260409020546101f2565b34801561046657600080fd5b506101706104753660046120a6565b6001600160a01b03918216600090815260056020908152604080832093909416825291909152205460ff1690565b60006104ae82610d40565b806104bd57506104bd82610d90565b92915050565b6060600080546104d2906125d7565b80601f01602080910402602001604051908101604052809291908181526020018280546104fe906125d7565b801561054b5780601f106105205761010080835404028352916020019161054b565b820191906000526020600020905b81548152906001019060200180831161052e57829003601f168201915b5050505050905090565b600061056082610db5565b6105c65760405162461bcd60e51b815260206004820152602c60248201527f4552433732313a20617070726f76656420717565727920666f72206e6f6e657860448201526b34b9ba32b73a103a37b5b2b760a11b60648201526084015b60405180910390fd5b506000908152600460205260409020546001600160a01b031690565b6000806105ee83610dd2565b905061061a7f9f2df0fed2c77648de5860a4cc508cd0818c85b8b8a1ab4ceeef8d981c8956a682610b26565b6106705760405162461bcd60e51b815260206004820152602160248201527f5369676e617475726520696e76616c6964206f7220756e617574686f72697a656044820152601960fa1b60648201526084016105bd565b82602001353410156106c45760405162461bcd60e51b815260206004820152601c60248201527f496e73756666696369656e742066756e647320746f2072656465656d0000000060448201526064016105bd565b6106cf818435610e32565b61071b83356106e1604086018661251c565b8080601f016020809104026020016040519081016040528093929190818152602001838380828437600092019190915250610f6592505050565b61072781858535610ff0565b6001600160a01b0381166000908152600860205260408120805434929061074f908490612532565b909155505091359392505050565b600061076882610a28565b9050806001600160a01b0316836001600160a01b031614156107d65760405162461bcd60e51b815260206004820152602160248201527f4552433732313a20617070726f76616c20746f2063757272656e74206f776e656044820152603960f91b60648201526084016105bd565b336001600160a01b03821614806107f257506107f28133610475565b6108645760405162461bcd60e51b815260206004820152603860248201527f4552433732313a20617070726f76652063616c6c6572206973206e6f74206f7760448201527f6e6572206e6f7220617070726f76656420666f7220616c6c000000000000000060648201526084016105bd565b61086e838361118c565b505050565b61087d33826111fa565b6108995760405162461bcd60e51b81526004016105bd90612486565b61086e838383610ff0565b6000828152600760205260409020600101546108c081336112e0565b61086e8383611344565b6001600160a01b038116331461093a5760405162461bcd60e51b815260206004820152602f60248201527f416363657373436f6e74726f6c3a2063616e206f6e6c792072656e6f756e636560448201526e103937b632b9903337b91039b2b63360891b60648201526084016105bd565b61094482826113ca565b5050565b6109727f9f2df0fed2c77648de5860a4cc508cd0818c85b8b8a1ab4ceeef8d981c8956a633610b26565b6109ca5760405162461bcd60e51b8152602060048201526024808201527f4f6e6c7920617574686f72697a6564206d696e746572732063616e20776974686044820152636472617760e01b60648201526084016105bd565b3360008181526008602052604080822080549083905590519091839183156108fc0291849190818181858888f1935050505015801561086e573d6000803e3d6000fd5b61086e83838360405180602001604052806000815250610b6b565b6000818152600260205260408120546001600160a01b0316806104bd5760405162461bcd60e51b815260206004820152602960248201527f4552433732313a206f776e657220717565727920666f72206e6f6e657869737460448201526832b73a103a37b5b2b760b91b60648201526084016105bd565b60006001600160a01b038216610b0a5760405162461bcd60e51b815260206004820152602a60248201527f4552433732313a2062616c616e636520717565727920666f7220746865207a65604482015269726f206164647265737360b01b60648201526084016105bd565b506001600160a01b031660009081526003602052604090205490565b60009182526007602090815260408084206001600160a01b0393909316845291905290205460ff1690565b6060600180546104d2906125d7565b610944338383611431565b610b7533836111fa565b610b915760405162461bcd60e51b81526004016105bd90612486565b610b9d84848484611500565b50505050565b6060610bae82610db5565b610c145760405162461bcd60e51b815260206004820152603160248201527f45524337323155524953746f726167653a2055524920717565727920666f72206044820152703737b732bc34b9ba32b73a103a37b5b2b760791b60648201526084016105bd565b60008281526006602052604081208054610c2d906125d7565b80601f0160208091040260200160405190810160405280929190818152602001828054610c59906125d7565b8015610ca65780601f10610c7b57610100808354040283529160200191610ca6565b820191906000526020600020905b815481529060010190602001808311610c8957829003601f168201915b505050505090506000610cc460408051602081019091526000815290565b9050805160001415610cd7575092915050565b815115610d09578082604051602001610cf1929190612340565b60405160208183030381529060405292505050919050565b610d1284611533565b949350505050565b600082815260076020526040902060010154610d3681336112e0565b61086e83836113ca565b60006001600160e01b031982166380ac58cd60e01b1480610d7157506001600160e01b03198216635b5e139f60e01b145b806104bd57506301ffc9a760e01b6001600160e01b03198316146104bd565b60006001600160e01b03198216637965db0b60e01b14806104bd57506104bd82610d40565b6000908152600260205260409020546001600160a01b0316151590565b600080610dde8361160a565b9050610e2b81610df160608601866124d7565b8080601f01602080910402602001604051908101604052809392919081815260200183838082843760009201919091525061169b92505050565b9392505050565b6001600160a01b038216610e885760405162461bcd60e51b815260206004820181905260248201527f4552433732313a206d696e7420746f20746865207a65726f206164647265737360448201526064016105bd565b610e9181610db5565b15610ede5760405162461bcd60e51b815260206004820152601c60248201527f4552433732313a20746f6b656e20616c7265616479206d696e7465640000000060448201526064016105bd565b6001600160a01b0382166000908152600360205260408120805460019290610f07908490612532565b909155505060008181526002602052604080822080546001600160a01b0319166001600160a01b03861690811790915590518392907fddf252ad1be2c89b69c2b068fc378daa952ba7f163c4a11628f55a4df523b3ef908290a45050565b610f6e82610db5565b610fd15760405162461bcd60e51b815260206004820152602e60248201527f45524337323155524953746f726167653a2055524920736574206f66206e6f6e60448201526d32bc34b9ba32b73a103a37b5b2b760911b60648201526084016105bd565b6000828152600660209081526040909120825161086e92840190611fd7565b826001600160a01b031661100382610a28565b6001600160a01b0316146110675760405162461bcd60e51b815260206004820152602560248201527f4552433732313a207472616e736665722066726f6d20696e636f72726563742060448201526437bbb732b960d91b60648201526084016105bd565b6001600160a01b0382166110c95760405162461bcd60e51b8152602060048201526024808201527f4552433732313a207472616e7366657220746f20746865207a65726f206164646044820152637265737360e01b60648201526084016105bd565b6110d460008261118c565b6001600160a01b03831660009081526003602052604081208054600192906110fd90849061257d565b90915550506001600160a01b038216600090815260036020526040812080546001929061112b908490612532565b909155505060008181526002602052604080822080546001600160a01b0319166001600160a01b0386811691821790925591518493918716917fddf252ad1be2c89b69c2b068fc378daa952ba7f163c4a11628f55a4df523b3ef91a4505050565b600081815260046020526040902080546001600160a01b0319166001600160a01b03841690811790915581906111c182610a28565b6001600160a01b03167f8c5be1e5ebec7d5bd14f71427d1e84f3dd0314c0f7b2291e5b200ac8c7c3b92560405160405180910390a45050565b600061120582610db5565b6112665760405162461bcd60e51b815260206004820152602c60248201527f4552433732313a206f70657261746f7220717565727920666f72206e6f6e657860448201526b34b9ba32b73a103a37b5b2b760a11b60648201526084016105bd565b600061127183610a28565b9050806001600160a01b0316846001600160a01b031614806112ac5750836001600160a01b03166112a184610555565b6001600160a01b0316145b80610d1257506001600160a01b0380821660009081526005602090815260408083209388168352929052205460ff16610d12565b6112ea8282610b26565b61094457611302816001600160a01b031660146116bf565b61130d8360206116bf565b60405160200161131e92919061236f565b60408051601f198184030181529082905262461bcd60e51b82526105bd91600401612421565b61134e8282610b26565b6109445760008281526007602090815260408083206001600160a01b03851684529091529020805460ff191660011790556113863390565b6001600160a01b0316816001600160a01b0316837f2f8788117e7eff1d82e926ec794901d17c78024a50270940304540a733656f0d60405160405180910390a45050565b6113d48282610b26565b156109445760008281526007602090815260408083206001600160a01b0385168085529252808320805460ff1916905551339285917ff6391f5c32d9c69d2a47ea670b442974b53935d1edc7fd64eb21e047a839171b9190a45050565b816001600160a01b0316836001600160a01b031614156114935760405162461bcd60e51b815260206004820152601960248201527f4552433732313a20617070726f766520746f2063616c6c65720000000000000060448201526064016105bd565b6001600160a01b03838116600081815260056020908152604080832094871680845294825291829020805460ff191686151590811790915591519182527f17307eab39ab6107e8899845ad3d59bd9653f200f220920489ca2b5937696c31910160405180910390a3505050565b61150b848484610ff0565b611517848484846118a1565b610b9d5760405162461bcd60e51b81526004016105bd90612434565b606061153e82610db5565b6115a25760405162461bcd60e51b815260206004820152602f60248201527f4552433732314d657461646174613a2055524920717565727920666f72206e6f60448201526e3732bc34b9ba32b73a103a37b5b2b760891b60648201526084016105bd565b60006115b960408051602081019091526000815290565b905060008151116115d95760405180602001604052806000815250610e2b565b806115e3846119ae565b6040516020016115f4929190612340565b6040516020818303038152906040529392505050565b60006104bd7f6316f9ddd4d59a364f3b95c26bab9d392c3380ace0fff15e91ed76f0d8bcd15a83356020850135611644604087018761251c565b604051611652929190612330565b6040519081900381206116809493929160200193845260208401929092526040830152606082015260800190565b60405160208183030381529060405280519060200120611ac8565b60008060006116aa8585611b16565b915091506116b781611b86565b509392505050565b606060006116ce83600261255e565b6116d9906002612532565b67ffffffffffffffff8111156116ff57634e487b7160e01b600052604160045260246000fd5b6040519080825280601f01601f191660200182016040528015611729576020820181803683370190505b509050600360fc1b8160008151811061175257634e487b7160e01b600052603260045260246000fd5b60200101906001600160f81b031916908160001a905350600f60fb1b8160018151811061178f57634e487b7160e01b600052603260045260246000fd5b60200101906001600160f81b031916908160001a90535060006117b384600261255e565b6117be906001612532565b90505b6001811115611852576f181899199a1a9b1b9c1cb0b131b232b360811b85600f166010811061180057634e487b7160e01b600052603260045260246000fd5b1a60f81b82828151811061182457634e487b7160e01b600052603260045260246000fd5b60200101906001600160f81b031916908160001a90535060049490941c9361184b816125c0565b90506117c1565b508315610e2b5760405162461bcd60e51b815260206004820181905260248201527f537472696e67733a20686578206c656e67746820696e73756666696369656e7460448201526064016105bd565b60006001600160a01b0384163b156119a357604051630a85bd0160e11b81526001600160a01b0385169063150b7a02906118e59033908990889088906004016123e4565b602060405180830381600087803b1580156118ff57600080fd5b505af192505050801561192f575060408051601f3d908101601f1916820190925261192c918101906122e8565b60015b611989573d80801561195d576040519150601f19603f3d011682016040523d82523d6000602084013e611962565b606091505b5080516119815760405162461bcd60e51b81526004016105bd90612434565b805181602001fd5b6001600160e01b031916630a85bd0160e11b149050610d12565b506001949350505050565b6060816119d25750506040805180820190915260018152600360fc1b602082015290565b8160005b81156119fc57806119e681612612565b91506119f59050600a8361254a565b91506119d6565b60008167ffffffffffffffff811115611a2557634e487b7160e01b600052604160045260246000fd5b6040519080825280601f01601f191660200182016040528015611a4f576020820181803683370190505b5090505b8415610d1257611a6460018361257d565b9150611a71600a8661262d565b611a7c906030612532565b60f81b818381518110611a9f57634e487b7160e01b600052603260045260246000fd5b60200101906001600160f81b031916908160001a905350611ac1600a8661254a565b9450611a53565b60006104bd611ad5611d8a565b8360405161190160f01b6020820152602281018390526042810182905260009060620160405160208183030381529060405280519060200120905092915050565b600080825160411415611b4d5760208301516040840151606085015160001a611b4187828585611eb1565b94509450505050611b7f565b825160401415611b775760208301516040840151611b6c868383611f9e565b935093505050611b7f565b506000905060025b9250929050565b6000816004811115611ba857634e487b7160e01b600052602160045260246000fd5b1415611bb15750565b6001816004811115611bd357634e487b7160e01b600052602160045260246000fd5b1415611c215760405162461bcd60e51b815260206004820152601860248201527f45434453413a20696e76616c6964207369676e6174757265000000000000000060448201526064016105bd565b6002816004811115611c4357634e487b7160e01b600052602160045260246000fd5b1415611c915760405162461bcd60e51b815260206004820152601f60248201527f45434453413a20696e76616c6964207369676e6174757265206c656e6774680060448201526064016105bd565b6003816004811115611cb357634e487b7160e01b600052602160045260246000fd5b1415611d0c5760405162461bcd60e51b815260206004820152602260248201527f45434453413a20696e76616c6964207369676e6174757265202773272076616c604482015261756560f01b60648201526084016105bd565b6004816004811115611d2e57634e487b7160e01b600052602160045260246000fd5b1415611d875760405162461bcd60e51b815260206004820152602260248201527f45434453413a20696e76616c6964207369676e6174757265202776272076616c604482015261756560f01b60648201526084016105bd565b50565b6000306001600160a01b037f000000000000000000000000000000000000000000000000000000000000000016148015611de357507f000000000000000000000000000000000000000000000000000000000000000046145b15611e0d57507f000000000000000000000000000000000000000000000000000000000000000090565b50604080517f00000000000000000000000000000000000000000000000000000000000000006020808301919091527f0000000000000000000000000000000000000000000000000000000000000000828401527f000000000000000000000000000000000000000000000000000000000000000060608301524660808301523060a0808401919091528351808403909101815260c0909201909252805191012090565b6000807f7fffffffffffffffffffffffffffffff5d576e7357a4501ddfe92f46681b20a0831115611ee85750600090506003611f95565b8460ff16601b14158015611f0057508460ff16601c14155b15611f115750600090506004611f95565b6040805160008082526020820180845289905260ff881692820192909252606081018690526080810185905260019060a0016020604051602081039080840390855afa158015611f65573d6000803e3d6000fd5b5050604051601f1901519150506001600160a01b038116611f8e57600060019250925050611f95565b9150600090505b94509492505050565b6000806001600160ff1b03831681611fbb60ff86901c601b612532565b9050611fc987828885611eb1565b935093505050935093915050565b828054611fe3906125d7565b90600052602060002090601f016020900481019282612005576000855561204b565b82601f1061201e57805160ff191683800117855561204b565b8280016001018555821561204b579182015b8281111561204b578251825591602001919060010190612030565b5061205792915061205b565b5090565b5b80821115612057576000815560010161205c565b80356001600160a01b038116811461208757600080fd5b919050565b60006020828403121561209d578081fd5b610e2b82612070565b600080604083850312156120b8578081fd5b6120c183612070565b91506120cf60208401612070565b90509250929050565b6000806000606084860312156120ec578081fd5b6120f584612070565b925061210360208501612070565b9150604084013590509250925092565b60008060008060808587031215612128578081fd5b61213185612070565b935061213f60208601612070565b925060408501359150606085013567ffffffffffffffff80821115612162578283fd5b818701915087601f830112612175578283fd5b8135818111156121875761218761266d565b604051601f8201601f19908116603f011681019083821181831017156121af576121af61266d565b816040528281528a60208487010111156121c7578586fd5b82602086016020830137918201602001949094529598949750929550505050565b600080604083850312156121fa578182fd5b61220383612070565b915060208301358015158114612217578182fd5b809150509250929050565b60008060408385031215612234578182fd5b61223d83612070565b9150602083013567ffffffffffffffff811115612258578182fd5b830160808186031215612217578182fd5b6000806040838503121561227b578182fd5b61228483612070565b946020939093013593505050565b6000602082840312156122a3578081fd5b5035919050565b600080604083850312156122bc578182fd5b823591506120cf60208401612070565b6000602082840312156122dd578081fd5b8135610e2b81612683565b6000602082840312156122f9578081fd5b8151610e2b81612683565b6000815180845261231c816020860160208601612594565b601f01601f19169290920160200192915050565b8183823760009101908152919050565b60008351612352818460208801612594565b835190830190612366818360208801612594565b01949350505050565b7f416363657373436f6e74726f6c3a206163636f756e74200000000000000000008152600083516123a7816017850160208801612594565b7001034b99036b4b9b9b4b733903937b6329607d1b60179184019182015283516123d8816028840160208801612594565b01602801949350505050565b6001600160a01b038581168252841660208201526040810183905260806060820181905260009061241790830184612304565b9695505050505050565b602081526000610e2b6020830184612304565b60208082526032908201527f4552433732313a207472616e7366657220746f206e6f6e20455243373231526560408201527131b2b4bb32b91034b6b83632b6b2b73a32b960711b606082015260800190565b60208082526031908201527f4552433732313a207472616e736665722063616c6c6572206973206e6f74206f6040820152701ddb995c881b9bdc88185c1c1c9bdd9959607a1b606082015260800190565b6000808335601e198436030181126124ed578283fd5b83018035915067ffffffffffffffff821115612507578283fd5b602001915036819003821315611b7f57600080fd5b6000808335601e198436030181126124ed578182fd5b6000821982111561254557612545612641565b500190565b60008261255957612559612657565b500490565b600081600019048311821515161561257857612578612641565b500290565b60008282101561258f5761258f612641565b500390565b60005b838110156125af578181015183820152602001612597565b83811115610b9d5750506000910152565b6000816125cf576125cf612641565b506000190190565b600181811c908216806125eb57607f821691505b6020821081141561260c57634e487b7160e01b600052602260045260246000fd5b50919050565b600060001982141561262657612626612641565b5060010190565b60008261263c5761263c612657565b500690565b634e487b7160e01b600052601160045260246000fd5b634e487b7160e01b600052601260045260246000fd5b634e487b7160e01b600052604160045260246000fd5b6001600160e01b031981168114611d8757600080fdfea2646970667358221220efd546619a57b338ecc4d141139721c995cacba9953be0083080ee316cf66a0f64736f6c63430008040033",
  "linkReferences": {},
  "deployedLinkReferences": {}
}